{
  "_format": "hh3-artifact-1",
  "contractName": "Faucet",
  "sourceName": "contracts/Faucet.sol",
  "abi": [
    {
      "inputs": [
        {
          "internalType": "address",
          "name": "tokenAddress",
          "type": "address"
        },
        {
          "internalType": "address",
          "name": "initialOwner",
          "type": "address"
        }
      ],
      "stateMutability": "nonpayable",
      "type": "constructor"
    },
    {
      "inputs": [
        {
          "internalType": "address",
          "name": "owner",
          "type": "address"
        }
      ],
      "name": "OwnableInvalidOwner",
      "type": "error"
    },
    {
      "inputs": [
        {
          "internalType": "address",
          "name": "account",
          "type": "address"
        }
      ],
      "name": "OwnableUnauthorizedAccount",
      "type": "error"
    },
    {
      "anonymous": false,
      "inputs": [
        {
          "indexed": true,
          "internalType": "address",
          "name": "previousOwner",
          "type": "address"
        },
        {
          "indexed": true,
          "internalType": "address",
          "name": "newOwner",
          "type": "address"
        }
      ],
      "name": "OwnershipTransferred",
      "type": "event"
    },
    {
      "anonymous": false,
      "inputs": [
        {
          "indexed": true,
          "internalType": "address",
          "name": "to",
          "type": "address"
        },
        {
          "indexed": false,
          "internalType": "uint256",
          "name": "amount",
          "type": "uint256"
        }
      ],
      "name": "TokensRequested",
      "type": "event"
    },
    {
      "inputs": [],
      "name": "cooldown",
      "outputs": [
        {
          "internalType": "uint256",
          "name": "",
          "type": "uint256"
        }
      ],
      "stateMutability": "view",
      "type": "function"
    },
    {
      "inputs": [],
      "name": "dripAmount",
      "outputs": [
        {
          "internalType": "uint256",
          "name": "",
          "type": "uint256"
        }
      ],
      "stateMutability": "view",
      "type": "function"
    },
    {
      "inputs": [
        {
          "internalType": "address",
          "name": "",
          "type": "address"
        }
      ],
      "name": "lastRequestTime",
      "outputs": [
        {
          "internalType": "uint256",
          "name": "",
          "type": "uint256"
        }
      ],
      "stateMutability": "view",
      "type": "function"
    },
    {
      "inputs": [],
      "name": "owner",
      "outputs": [
        {
          "internalType": "address",
          "name": "",
          "type": "address"
        }
      ],
      "stateMutability": "view",
      "type": "function"
    },
    {
      "inputs": [],
      "name": "renounceOwnership",
      "outputs": [],
      "stateMutability": "nonpayable",
      "type": "function"
    },
    {
      "inputs": [],
      "name": "requestTokens",
      "outputs": [],
      "stateMutability": "nonpayable",
      "type": "function"
    },
    {
      "inputs": [
        {
          "internalType": "uint256",
          "name": "_cooldown",
          "type": "uint256"
        }
      ],
      "name": "setCooldown",
      "outputs": [],
      "stateMutability": "nonpayable",
      "type": "function"
    },
    {
      "inputs": [
        {
          "internalType": "uint256",
          "name": "_amount",
          "type": "uint256"
        }
      ],
      "name": "setDripAmount",
      "outputs": [],
      "stateMutability": "nonpayable",
      "type": "function"
    },
    {
      "inputs": [],
      "name": "token",
      "outputs": [
        {
          "internalType": "contract IERC20",
          "name": "",
          "type": "address"
        }
      ],
      "stateMutability": "view",
      "type": "function"
    },
    {
      "inputs": [
        {
          "internalType": "address",
          "name": "newOwner",
          "type": "address"
        }
      ],
      "name": "transferOwnership",
      "outputs": [],
      "stateMutability": "nonpayable",
      "type": "function"
    },
    {
      "inputs": [],
      "name": "withdrawTokens",
      "outputs": [],
      "stateMutability": "nonpayable",
      "type": "function"
    }
  ],
  "bytecode": "0x60806040526305f5e10060025561012c60035534801561001d575f5ffd5b5060405161082638038061082683398101604081905261003c91610104565b806001600160a01b03811661006a57604051631e4fbdf760e01b81525f600482015260240160405180910390fd5b6100738161009a565b5050600180546001600160a01b0319166001600160a01b0392909216919091179055610135565b5f80546001600160a01b038381166001600160a01b0319831681178455604051919092169283917f8be0079c531659141344cd1fd0a4f28419497f9722a3daafe3b4186f6b6457e09190a35050565b80516001600160a01b03811681146100ff575f5ffd5b919050565b5f5f60408385031215610115575f5ffd5b61011e836100e9565b915061012c602084016100e9565b90509250929050565b6106e4806101425f395ff3fe608060405234801561000f575f5ffd5b50600436106100a6575f3560e01c8063715018a61161006e578063715018a614610115578063787a08a61461011d5780638d8f2adb146101265780638da5cb5b1461012e578063f2fde38b14610152578063fc0c546a14610165575f5ffd5b8063359cf2b7146100aa57806335a1529b146100b4578063394f6181146100d05780634fc3f41a146100ef578063543f8c5814610102575b5f5ffd5b6100b2610178565b005b6100bd60025481565b6040519081526020015b60405180910390f35b6100bd6100de36600461060f565b60046020525f908152604090205481565b6100b26100fd36600461063c565b6103d0565b6100b261011036600461063c565b6103dd565b6100b26103ea565b6100bd60035481565b6100b26103fd565b5f546001600160a01b03165b6040516001600160a01b0390911681526020016100c7565b6100b261016036600461060f565b610557565b60015461013a906001600160a01b031681565b600354335f908152600460205260409020546101949190610653565b4210156101f45760405162461bcd60e51b815260206004820152602360248201527f4661756365743a20436f6f6c646f776e20706572696f64206973206e6f74206f6044820152623b32b960e91b60648201526084015b60405180910390fd5b6002546001546040516370a0823160e01b81523060048201526001600160a01b03909116906370a0823190602401602060405180830381865afa15801561023d573d5f5f3e3d5ffd5b505050506040513d601f19601f820116820180604052508101906102619190610678565b10156102bf5760405162461bcd60e51b815260206004820152602760248201527f4661756365743a204e6f7420656e6f75676820746f6b656e7320696e207468656044820152660819985d58d95d60ca1b60648201526084016101eb565b335f818152600460208190526040808320429055600154600254915163a9059cbb60e01b815292830194909452602482015290916001600160a01b03169063a9059cbb906044016020604051808303815f875af1158015610322573d5f5f3e3d5ffd5b505050506040513d601f19601f82011682018060405250810190610346919061068f565b9050806103955760405162461bcd60e51b815260206004820152601d60248201527f4661756365743a20546f6b656e207472616e73666572206661696c656400000060448201526064016101eb565b60025460405190815233907fc3fb6c98272d7a0d5dc26727b61c00ece2e5bf3dbdc0284659e28d441c1ce06c9060200160405180910390a250565b6103d8610594565b600355565b6103e5610594565b600255565b6103f2610594565b6103fb5f6105c0565b565b610405610594565b6001546040516370a0823160e01b81523060048201525f916001600160a01b0316906370a0823190602401602060405180830381865afa15801561044b573d5f5f3e3d5ffd5b505050506040513d601f19601f8201168201806040525081019061046f9190610678565b6001549091505f906001600160a01b031663a9059cbb6104965f546001600160a01b031690565b6040516001600160e01b031960e084901b1681526001600160a01b039091166004820152602481018590526044016020604051808303815f875af11580156104e0573d5f5f3e3d5ffd5b505050506040513d601f19601f82011682018060405250810190610504919061068f565b9050806105535760405162461bcd60e51b815260206004820152601f60248201527f4661756365743a20546f6b656e207769746864726177616c206661696c65640060448201526064016101eb565b5050565b61055f610594565b6001600160a01b03811661058857604051631e4fbdf760e01b81525f60048201526024016101eb565b610591816105c0565b50565b5f546001600160a01b031633146103fb5760405163118cdaa760e01b81523360048201526024016101eb565b5f80546001600160a01b038381166001600160a01b0319831681178455604051919092169283917f8be0079c531659141344cd1fd0a4f28419497f9722a3daafe3b4186f6b6457e09190a35050565b5f6020828403121561061f575f5ffd5b81356001600160a01b0381168114610635575f5ffd5b9392505050565b5f6020828403121561064c575f5ffd5b5035919050565b8082018082111561067257634e487b7160e01b5f52601160045260245ffd5b92915050565b5f60208284031215610688575f5ffd5b5051919050565b5f6020828403121561069f575f5ffd5b81518015158114610635575f5ffdfea2646970667358221220062f8201c430776189c4aa748d341370666991f7fd78ef94e568b302bd031e5f64736f6c634300081c0033",
  "linkReferences": {},
  "deployedLinkReferences": {},
  "immutableReferences": {},
  "inputSourceName": "project/contracts/Faucet.sol",
  "buildInfoId": "solc-0_8_28-c2f8c0b5f4337d2855b401b80082c4f6c95e167e"
}